:060000000A128A110C280F
:10000800FE00030EF5000A08F6000A128A115229AA
:100018000A128A110F28F701F80183120313A501A8
:1000280083010A128A11BD29831203131F083F395D
:1000380080389F00C3309F05831603139F131F1238
:100048009F12831203131F140C13831603178801BE
:100058008901C4288316031708148316031305148B
:10006800F7281F08C33904389F008316031788141C
:10007800831603138514F7281F08C33908389F000F
:10008800831603170815831603130515F7281F0889
:10009800C3390C389F00831603178815831603137A
:1000A8008515F7281F08C33910389F0083160317D2
:1000B8000816831603138516F7281F08C339143842
:1000C8009F00831603178816831603130914F7284D
:1000D8001F08C33918389F0083160317081783169B
:1000E80003138914F7281F08C3391C389F00831687
:1000F80003178817831603130915F7281F08C33930
:1001080020389F0083160317091483160313061556
:10011800F7281F08C33924389F008316031789144A
:10012800831603138615F7281F08C33928389F003C
:10013800831603170915831603138614F7281F0857
:10014800C3392C389F0083160317891583160313A8
:100158000616F7281F08C33930389F00831603177F
:100168000916831603130614F7281F08C3393438F1
:100178009F00831603178916831603138616F7281C
:10018800831203132108003A0319CB28F728200803
:10019800003A03192E28013A03193528033A03199E
:1001A8004028013A03194B28073A03195628013AFF
:1001B80003196128033A03196C28013A03197728AF
:1001C8000F3A03198228013A03198D28033A0319B3
:1001D8009828013A0319A328073A0319AE28013AC7
:1001E8000319B928F728080083120313A2008316FD
:1001F8000317880189018B158316031381130C29B2
:100208008316031306142629831603138614262936
:10021800831203132208A000A1012108003A031940
:10022800162926292008003A03190429013A031936
:10023800082926298316031316143F298316031346
:1002480096143F2983122208A000A1012108003A30
:1002580003192F293F292008003A03191E29013ABA
:10026800031922293F2983160313151450298316CD
:1002780003139514502983122208A000A101210814
:10028800003A0319482950292008003A0319372948
:10029800013A03193B2950290B1008000B1C55295A
:1002A80056296F298312031306185B295C296429D0
:1002B800861C5F29602964290130F4007408A507A9
:1002C800061C672968296E2986186B296C296E29EE
:1002D8000130A5020B10831203130C1F7429752912
:1002E80082290A128A11DA210A128A117108F80081
:1002F8007008F70077088312031388000C13760838
:100308008A00750E8300FE0E7E0E09008316031305
:1003180085018701880100300A128A11F8200A1223
:100328008A1101300A128A11F8200A128A118B15D3
:100338000B178B170B10831603130C178312031359
:100348008501860187018801831603130F088F39F9
:1003580040388F000F14003083120313A000A1004F
:100368000A128A1118200A128A1183120313A5018E
:1003780008000A128A118A210A128A1183120313A9
:10038800250887009F18C929CA29C2299F14113036
:1003980083120313A4003930A300A30BD129A40BA3
:1003A800D129D629C2290A128A110C2883120313CB
:1003B8001E08F200F3017208F0007308F10008004B
:08400000FF3FFF3FFF3FFF3FC0
:04400E00D420FF3F7C
:00000001FF
