:060000000A128A110E280D
:10000800FE00030EF7000408F8000A08F9000A12B7
:100018008A110B290A128A11112883133030FD0026
:100028000230FE005630FF00203084000A128A1188
:1000380035220A128A11B501B601B701F001F101A2
:10004800F201F301F40183010A128A110D2A8312C5
:1000580003131F083F3980389F00C3309F0583165C
:1000680003139F131F129F12831203131F140C13E1
:100078008316031788018901D728831603170814E4
:100088008316031305140A291F08C33904389F006F
:100098008316031788148316031385140A291F0867
:1000A800C33908389F0083160317081583160313EE
:1000B80005150A291F08C3390C389F008316031732
:1000C80088158316031385150A291F08C3391038A4
:1000D8009F008316031708168316031385160A292B
:1000E8001F08C33914389F00831603178816831610
:1000F800031309140A291F08C33918389F008316E7
:10010800031708178316031389140A291F08C3390C
:100118001C389F00831603178817831603130915C5
:100128000A291F08C33920389F00831603170914AA
:100138008316031306150A291F08C33924389F009C
:100148008316031789148316031386150A291F08B3
:10015800C33928389F00831603170915831603131C
:1001680086140A291F08C3392C389F0083160317E1
:1001780089158316031306160A291F08C339303850
:100188009F008316031709168316031306140A29FA
:100198001F08C33934389F0083160317891683163E
:1001A800031386160A29831203133108003A031928
:1001B800DE280A293008003A03194128013A0319B0
:1001C8004828033A03195328013A03195E28073AC5
:1001D80003196928013A03197428033A03197F2877
:1001E800013A03198A280F3A03199528013A031985
:1001F800A028033A0319AB28013A0319B628073A8D
:100208000319C128013A0319CC280A2908000B1C34
:100218000E290F29282983120313061814291529D2
:100228001D29861C182919291D290130F600760870
:10023800F407061C2029212927298618242925297D
:1002480027290130F4020B10831203130C1F2D29E8
:100258002E2934291E080A128A1170220A128A11BC
:10026800831203130C130B1D3A293B296C298901AE
:100278007008031D40294129462901308900F001F1
:10028800F00A69297003031D4A294B295829710866
:100298000A128A1166220A128A1102308312031383
:1002A80089000230F000692902307006031D5D29BB
:1002B8005E29692972080A128A1166220A128A11AD
:1002C8000430831203138900F001D83081000B1128
:1002D80079088A0078088400770E8300FE0E7E0E67
:1002E800090083120313B2008316031788018901DA
:1002F8008B15831603138113892983160313061498
:10030800A329831603138614A3298312031332081F
:10031800B000B1013108003A03199329A329300824
:10032800003A03198129013A03198529A32983165B
:1003380003131614BC29831603139614BC298312BD
:100348003208B000B1013108003A0319AC29BC29C0
:100358003008003A03199B29013A03199F29BC293F
:10036800831603131514CD29831603139514CD2969
:1003780083123208B000B1013108003A0319C529C7
:10038800CD293008003A0319B429013A0319B829CC
:10039800CD290B10080083160313850187018801F6
:1003A800890100300A128A1175210A128A11013056
:1003B8000A128A1175210A128A118B150B178B17CD
:1003C8000B100B118B16831603130C1783120313D0
:1003D800850186018701880189017030831603131E
:1003E8008F040F14003083120313B000B1000A12F7
:1003F8008A112B200A128A11831603138112811184
:10040800011581140114D830831203138100F401FB
:1004180008000A128A11CF210A128A11740883125D
:100428000313870073080A128A1144220A128A11D8
:10043800831203139F18212A222A122A9F1482301A
:1004480083120313B400DD30B300B30B292AB40BB5
:10045800292A122A0A128A110E287E088A007F0881
:1004680082000A128A1131220A128A118000840A33
:1004780004087D0603190034FF0A0319FE0A352A09
:1004880083120313B10031080F39F2003108B000AC
:1004980004300310B00CFF3E031D4D2A30080F39FD
:1004A800F10008003F3406345B344F3466346D3451
:1004B8007D3407347F346F3477347C3439345E3498
:1004C80079347134F5007508203E840083130008E0
:1004D8008312031388000800F5007508F30008006C
:08400000FF3FFF3FFF3FFF3FC0
:04400E00D420FF3F7C
:00000001FF
