:060000000A128A110E280D
:10000800FE00030EF7000408F8000A08F9000A12B7
:100018008A117A290A128A11112883133030FD00B7
:100028000230FE007130FF00203084000A128A116D
:1000380050220A128A11B501B601B701F001F10187
:10004800F201F301F40183010A128A111D2A8312B5
:1000580003131F083F3980389F00C3309F0583165C
:1000680003139F131F129F12831203131F140C13E1
:100078008316031788018901D728831603170814E4
:100088008316031305140A291F08C33904389F006F
:100098008316031788148316031385140A291F0867
:1000A800C33908389F0083160317081583160313EE
:1000B80005150A291F08C3390C389F008316031732
:1000C80088158316031385150A291F08C3391038A4
:1000D8009F008316031708168316031385160A292B
:1000E8001F08C33914389F00831603178816831610
:1000F800031309140A291F08C33918389F008316E7
:10010800031708178316031389140A291F08C3390C
:100118001C389F00831603178817831603130915C5
:100128000A291F08C33920389F00831603170914AA
:100138008316031306150A291F08C33924389F009C
:100148008316031789148316031386150A291F08B3
:10015800C33928389F00831603170915831603131C
:1001680086140A291F08C3392C389F0083160317E1
:1001780089158316031306160A291F08C339303850
:100188009F008316031709168316031306140A29FA
:100198001F08C33934389F0083160317891683163E
:1001A800031386160A29831203133108003A031928
:1001B800DE280A293008003A03194128013A0319B0
:1001C8004828033A03195328013A03195E28073AC5
:1001D80003196928013A03197428033A03197F2877
:1001E800013A03198A280F3A03199528013A031985
:1001F800A028033A0319AB28013A0319B628073A8D
:100208000319C128013A0319CC280A2908008312C6
:100218000313B20083160317880189018B1583160F
:100228000313811323298316031306144429831601
:1002380003138614442983160313061144298312D1
:1002480003133208B000B1013108003A03192D290F
:1002580044293008003A03191729013A03191B29C0
:10026800033A03191F294429831603131614642912
:10027800831603139614642983160313161164292D
:1002880083123208B000B1013108003A03194D2930
:1002980064293008003A03193829013A03193C291E
:1002A800033A03194029642983160313151478297E
:1002B80083160313951478298316031315117829C7
:1002C80083123208B000B1013108003A03196D29D0
:1002D80078293008003A03195829013A03195C298A
:1002E800033A0319602978290B1008000B1C7D2993
:1002F8007E299729831203130618832984298C29B8
:10030800861C872988298C290130F6007608F4078D
:10031800061C8F29902996298618932994299629AD
:100328000130F4020B10831203130C1F9C299D2922
:10033800A3291E080A128A118B220A128A11831213
:1003480003130C130B1DA929AA29D02989017008A8
:10035800031DAF29B029BD2971080A128A1181220B
:100368000A128A110230831203138900F001F00A7D
:10037800CD297003031DC129C229CD2972080A128B
:100388008A1181220A128A11043083120313890008
:10039800F001D83081000B1179088A0078088400B0
:1003A800770E8300FE0E7E0E090083160313850167
:1003B80087018801890100300A128A110B210A126B
:1003C8008A1101300A128A110B210A128A1102308D
:1003D8000A128A110B210A128A118B150B178B1717
:1003E8000B100B118B16831603130C1783120313B0
:1003F80085018601870188018901703083160313FE
:100408008F040F14003083120313B000B1000A12D6
:100418008A112B200A128A11831603138112811163
:10042800011581140114D830831203138100F401DB
:1004380008000A128A11D9210A128A117408831233
:100448000313870073080A128A115F220A128A119D
:10045800740873020318312A322A362A83120313C6
:100468000611392A8312031306159F183C2A3D2AC0
:10047800222A9F14823083120313B400DD30B300A4
:10048800B30B442AB40B442A222A0A128A110E28D2
:100498007E088A007F0882000A128A114C220A12FA
:1004A8008A118000840A04087D0603190034FF0AB3
:1004B8000319FE0A502A83120313B10031080F39B9
:1004C800F2003108B00004300310B00CFF3E031DE9
:1004D800682A30080F39F10008003F3406345B34CD
:1004E8004F3466346D347D3407347F346F34773459
:1004F8007C3439345E3479347134F5007508203E23
:100508008400831300088312031388000800F50091
:060518007508F300080065
:08400000FF3FFF3FFF3FFF3FC0
:04400E00D420FF3F7C
:00000001FF
