:060000000A128A110C280F
:10000800FE00030EF2000A08F3000A128A111428EF
:100018000A128A110F28F40183010A128A11602832
:100028000B1C1728182831288312031306181D28BB
:100038001E282628861C2128222826280130F00080
:100048007008F407061C29282A28302886182D2825
:100058002E2830280130F4020B100430F1003D3016
:10006800F000F00B3528F10B35283A2873088A0080
:10007800720E8300FE0E7E0E090083160317880198
:100088008901831603138501061486148113151438
:100098009514161496148B178B150B170B108312C7
:1000A800031385018601831603130F088F3940381F
:1000B8008F000F14F40108000A128A1141200A1255
:1000C8008A11740883120313850065280A128A119D
:0200D8000C28F2
:08400000FF3FFF3FFF3FFF3FC0
:04400E00D420FF3F7C
:00000001FF
